:100000000C9434000C9449000C9449000C94490061
:100010000C9449000C9449000C9449000C9449003C
:100020000C9449000C9449000C9449000C9449002C
:100030000C9449000C9449000C9449000C9449001C
:100040000C9449000C9449000C9449000C9449000C
:100050000C9449000C9449000C9449000C944900FC
:100060000C9449000C94490011241FBECFEFD8E036
:10007000DEBFCDBF11E0A0E0B1E0E4EDF0E002C0F2
:1000800005900D92A431B107D9F70E944B000C9452
:1000900068000C9400008FEF8AB987E084B980E093
:1000A00090E02CEF25B9FC01E65FFE4F30813BB9B3
:1000B0003FE342E45FE0315040405040E1F700C090
:1000C000000001968A3091056CF380E090E0EACF61
:0400D000F894FFCFD2
:1000D40010D3484183212053010014D74C45872570
:0400E40024040500EB
:00000001FF
